S0130000554152545F4472697665722E737265630A
S11300000C942A000C9434000C9434000C943400A6
S11300100C9434000C9434000C9434000C9434008C
S11300200C9434000C9434000C9434000C9434007C
S11300300C9434000C9434000C9434000C9434006C
S11300400C9434000C9434000C9434000C9434005C
S11300500C94340011241FBECFE5D8E0DEBFCDBF21
S11300600E94A7000C94C1000C940000423008F0D8
S11300706DC04130A1F5813089F028F08230C9F09B
S1130080833011F108952AB381E090E002C0880F13
S1130090991F6A95E2F7822B8ABB089527B381E002
S11300A090E002C0880F991F6A95E2F7822B87BB04
S11300B0089524B381E090E002C0880F991F6A95E7
S11300C0E2F7822B84BB089521B381E090E002C063
S11300D0880F991F6A95E2F7822B81BB08958130BE
S11300E091F028F08230D9F0833029F108952AB3B1
S11300F081E090E002C0880F991F6A95E2F780952D
S113010082238ABB089527B381E090E002C0880F60
S1130110991F6A95E2F78095822387BB089524B3DB
S113012081E090E002C0880F991F6A95E2F78095FC
S1130130822384BB089521B381E090E002C0880F3C
S1130140991F6A95E2F78095822381BB089541E067
S113015061E083E00E9436000E94B20086E60E94BD
S1130160BD00FFCF86E880BD87E689B98AB1886083
S11301708AB98AB180618AB908958CB95D9BFECF32
S10901800895F894FFCF7E
S9030000FC
